:100000006F00D04F13000000130000001300000029
:100010001300000013000000130000001300000094
:100020001300000013000000130000001300000084
:08003000130000007300100032
:1000380000000000000000003E0C0000400C000022
:1000480000000000420C000000000000000000005A
:10005800440C0000460C00000000000000000000F6
:10006800BC160000000000004A0C00000000000060
:100078004C0C00004E0C0000500C0000520C00000C
:10008800540C0000560C0000580C00005A0C0000DC
:100098005C0C00005E0C0000600C0000620C0000AC
:1000A800640C0000660C0000680C00006A0C00007C
:1000B8006C0C00006E0C0000700C0000720C00004C
:1000C800740C0000760C0000780C00007A0C00001C
:1000D8007C0C00007E0C0000800C0000820C0000EC
:1000E800840C0000860C0000880C00008A0C0000BC
:1000F8008C0C00008E0C0000900C0000920C00008C
:10010800940C0000960C0000980C00009A0C00005B
:100118009C0C00009E0C0000A00C0000A20C00002B
:10012800A40C0000A60C0000A80C0000AA0C0000FB
:10013800AC0C0000AE0C0000B00C0000B20C0000CB
:10014800B40C0000B60C0000B80C0000BA0C00009B
:10015800BC0C0000BE0C0000C00C0000C20C00006B
:10016800C40C0000C60C0000C80C0000CA0C00003B
:10017800CC0C0000CE0C0000D00C0000D20C00000B
:10018800D40C00000A040000D80C0000DA0C0000AF
:10019800DC0C0000DE0C0000E00C0000E20C0000AB
:1001A800E40C0000E60C0000E80C0000EA0C00007B
:1001B800EC0C0000EE0C0000F00C0000F20C00004B
:1001C800F40C0000F60C0000F80C0000FA0C00001B
:1001D8000000000000000000000000000000000017
:1001E8000000000000000000000000000000000007
:0801F8000000000000000000FF
:10020000397101436EC619A0397141536AC866CA73
:1002100062CC5ECE19A0397101535AD056D252D455
:100220004ED64AD826DA22DC06DE330161408282CD
:1002300041114AC026C222C406C68282B24D410183
:10024000024D924C224CB24B4101024B924A224A3F
:10025000B2494101024992442244B24041018280A4
:10026000EFF21FFD0545EF10E02F0145EF10002ACA
:100270000545EF1000280545EF10E02A0545EF1071
:10028000202C0565854513050580EF10C022D9B7E0
:10029000B737024019472380E740B706002003A77D
:1002A00006039307703E63FDE70001471306803E97
:1002B000010083A706030507B3D7C702E36AF7FE69
:1002C00001EDB73702402380074037072000B7E72A
:1002D00000E023A4E71882803737024083460740B6
:1002E0009307074093F6B60F2300D740C146A3807B
:1002F000D700930690022300D74093067002238113
:10030000D700B7061400A90694CB93060004239CDB
:10031000D708930600202390D70A2394D70A938600
:100320004185D4CF93864189F4CF938641A9D4D314
:10033000938641C9F4D3938641E9D4D7239C070C13
:100340008946238DD70CA38D070C239E070C238F82
:10035000D70CA381070E2392070E2383D70EA38504
:10036000070EB7270020938747CC85462398D7A050
:100370008347074093E707012300F740B7E700E012
:100380003707200023A4E71082808947630FF50018
:1003900091476303F5008280B737024003C7B74E29
:1003A0001377C70FA385E74E8280B737024003C794
:1003B000374E1377C70FA381E74E8280930710084B
:1003C0006306F502930730086303F5008280B737B0
:1003D0000240420623A2B74641822392C74E03C77A
:1003E000674E1377C70F2383E74E8280B7370240EB
:1003F000420623AEB7444182239EC74C03C7E74D54
:100400001377C70F238FE74C82805971B7370240AB
:10041000A2D6A6D4CAD2CED0D2CED6CCDACA82E662
:1004200086E48AE28EE012FE16FC1AFA1EF82AF61C
:100430002EF432F236F03AEE3EEC42EA46E872E64C
:1004400076E47AE27EE09387074003C7A70083C67D
:10045000B7001377F70F137607024DC22947238D94
:10046000E70CA38DE70C138741851C435043138988
:10047000C18213F4F70F2320F9002322C9009377D8
:10048000040689EF834719002D46636CF600096660
:100490008A071306C62AB2979C4382879377040281
:1004A000CDC3B73702402D47238DE74CA38DE74CD2
:1004B000B7370240130700022385E74093870740C0
:1004C0003654A65416598659764AE64A564B366033
:1004D000A660166186617272E2725273C2733275DF
:1004E000A275127682767267E2675268C268326ECF
:1004F000A26E126F826F6561730020301376270041
:100500001DCA93F6F60F13F706032DC71306000254
:10051000631BC700BD8A0547638EE64A63880642AF
:100520000D46638DC614B737024009472385E7405F
:100530009387074071B793761700C9E62385E700D4
:1005400041B71374040431DC1385C182EF10606F6E
:10055000034409008354690062046184634C040EFF
:100560006394040EB7370240239C074C2147238D28
:10057000E74C3DBF83D5C70013F7F6000946C20517
:10058000C1816302C74A11466307C74649FF93F614
:100590000604D1DA1389C1828347090093F707065D
:1005A00063820756034719002313090093070002CB
:1005B0006304F750B7370240239C074C2147238D33
:1005C000E74C95B723840182A384018223850182AD
:1005D00037071400A3810700290798CB13070004ED
:1005E000239CE708130700202390E70A2394E70AD7
:1005F00013874185D8CF13874189F8CF138741A945
:10060000D8D3138741C9F8D3138741E9D8D7239C9E
:10061000070C0947238DE70CA38D070C239E070CBD
:10062000238FE70CA381070E2392070E2383E70E87
:1006300037270020A385070E8546130747CC2318CC
:10064000D7A02385D700ADBDB73702402147A38D82
:10065000E74CB9BD93070004268763E69704420779
:100660004183998CC204C18023139900B73702409B
:10067000239CE74C2147238DE74C1DBD83C6670EA5
:1006800093F6C60F93E626002383D70E83C6670E24
:1006900093C686002383D70EB7270020938747CCC5
:1006A0002398E7A049B51307000455BF9377F401D9
:1006B0000947E391E7EA03472900E31D07E80347F9
:1006C000490091466309D75263F3E6449307100843
:1006D0006305F75493073008E315F7DCB73702409A
:1006E00003C7674E136737002383E74E83546900BF
:1006F000A5B503472900835469002384E182A9BD7D
:100700009377F4010947E397E7E403472900E313EC
:1007100007E4034749009146630AD74E63F6E64073
:10072000930610086306D75093063008E31BD7D60C
:10073000373702402303F74E8354690031BD23004D
:1007400007009376F40189476382F630A30007001F
:100750002313F900094762046184E35704EE8144DE
:1007600021B7035629001D4793578600636CF71283
:1007700009678A071307C72DBA979C438287834668
:100780002900A384D18205472385E182835469002F
:10079000E1B38547230007002313F900054765BF30
:1007A00083C7918285462313D9002300F7000547AC
:1007B0005DB783C7B1820547630CF74089699387AA
:1007C000C93403CA370003C72700220A3A9A938A1A
:1007D0004183420A23A0FA00135A0A019389C934BB
:1007E00083546900014B637A9A34231349019307B8
:1007F0000004D28463F4470193040004C204C1805E
:10080000CE85268613854185EF10F01EA69923A07C
:100810003A019307F00FE306FBC8D28435BB896920
:1008200093878939938A418303CA893923A0FA00BF
:100830009389893975B71376F60F954763E4C70630
:1008400089670A069387C72FB2979C438287B73779
:1008500002409387074083C7870005478D8B6384D9
:10086000E73489699387493103CA370003C62700F3
:10087000220A329A938A4183420AA385018223A0E5
:10088000FA00135A0A019389493199BF89699387FC
:100890004938938A418303CA493823A0FA009389CF
:1008A00049383DBF83576900938A418383A90A0071
:1008B000E38907BE014A130BF00F05BF93878181BF
:1008C000938A418303CA818123A0FA00938981819D
:1008D00001BF89699387093C938A418303CA093C14
:1008E00023A0FA009389093CE5BD89699387493AB9
:1008F000938A418303CA493A23A0FA009389493A6B
:10090000C5B5B709002093870900938A418303CABC
:10091000090023A0FA0093890900D9B58969938752
:10092000C93D938A418303CAC93D23A0FA00938934
:10093000C93D7DB589699387C93E938A418303CABE
:10094000C93E23A0FA009389C93E59BD1389C182CB
:100950000354690001E42147A38DE70C8347090094
:1009600093F70706B1EF8347190015476380E72027
:1009700019476398E71E93070004A28A63E9870476
:100980009384418383A90400139A0A01135A0A012C
:10099000CE85528613854185EF10F005330444411E
:1009A000D2992313890023A03401B7370240239C36
:1009B000574D03C7A74D13478700238DE74CA5B6B6
:1009C00013070004E391E7B6A28AE3FB87FA930AD0
:1009D00000047DB703C7E70D1377C70F1367270020
:1009E000238FE70C03C7E70D13478700238FE70C1E
:1009F000EF10001B0DBE03C7B70EB726002093866D
:100A000046CC13478700A385E70E03C7B70E1377BD
:100A1000C70F13672700A385E70E2399B6C0854744
:100A2000239AF6C009B603C7370E138541A91347A9
:100A30008700A381E70E03C7370E1377C70F13672D
:100A40002700A381E70EEF102014F1BC8347490073
:100A500011466386C712637CF60213061008638D85
:100A6000C712130630086393C712B7370240938743
:100A7000074083C7670E8D8BF51793B71700A30048
:100A800007002300F7002313D9000947E9B1639F4A
:100A9000D70EB73602409386064083C6F60D231361
:100AA000F900A300070093F73600F51793B7170076
:100AB0002300F700094745B19387418503CE07001E
:100AC00003C3170083C8270003C8370083C5470046
:100AD00003C6570083C667003707002093078703C4
:100AE000230CC70313058703A38067002381170125
:100AF000A38107012382B700A382C7002383D70005
:100B0000EF10602883576900E39F07A065B4E31ADC
:100B1000F798B737024003C7F74D13673700A38F25
:100B2000E74C835469000DBCE31DF796B7370240CC
:100B3000A38F074C8354690005B493070004268AE9
:100B400063F49700130A0004420A135A0A01CE857F
:100B5000528613854185D299EF10E06923A03A01AE
:100B6000E5BAB7370240239C074C75BA03C78182A8
:100B7000B73702401377F70FA381E7406DB2B7375D
:100B800002409387074083C7770EF5B58947A300D6
:100B900007002313F90031B2B737024093870740AB
:100BA00083C7E70DC9BD89691387C934034A370074
:100BB00083452700220A2E9A938A4183420AA385FD
:100BC000F18223A0EA00135A0A019389C93409B9B2
:100BD00089699387493103CA370003C72700220A6E
:100BE0003A9A938A4183420A23A0FA00135A0A01CF
:100BF00093894931F5B6B737024003C7774E13677B
:100C00003700A383E74E83546900B9B2B737024077
:100C1000A383074E8354690081B2B737024003C7EC
:100C2000E74D13673700238FE74C835469002DB2DB
:100C300037370240230FF74C8354690031BA01A0C3
:100C400001A001A001A001A001A001A001A001A09C
:100C500001A001A001A001A001A001A001A001A08C
:100C600001A001A001A001A001A001A001A001A07C
:100C700001A001A001A001A001A001A001A001A06C
:100C800001A001A001A001A001A001A001A001A05C
:100C900001A001A001A001A001A001A001A001A04C
:100CA00001A001A001A001A001A001A001A001A03C
:100CB00001A001A001A001A001A001A001A001A02C
:100CC00001A001A001A001A001A001A001A001A01C
:100CD00001A001A001A001A001A001A001A001A00C
:100CE00001A001A001A001A001A001A001A001A0FC
:100CF00001A001A001A001A001A001A09701002076
:100D0000938141B3177100201301C12F1715000003
:100D10001305C57F97F5FF1F9385C52E1386818226
:100D200063FAC5008322050023A055001105910533
:100D3000E3EAC5FE1385818297150020938545BAA5
:100D40006377B500232005001105E36DB5FEFD4274
:100D5000739002BCAD4273904280B76200009382F0
:100D6000820873A0023097F2FFFF9382222D93E254
:100D7000320073905230EF004001971200009382CE
:100D800002907390123473002030B71702409843DA
:100D9000B706FFF841111367170098C3D8433715FA
:100DA0000240B7050200758FD8C39843B706F7FE17
:100DB000FD16758F98C39843B706FCFFFD16758F17
:100DC00098C3D843B70681FFFD16758FD8C39843E3
:100DD000B70600ECFD16758F98C33707FF0098C75C
:100DE00023A6070202C402C69843C1660566558F52
:100DF00098C321A0A247638AC7001C41ED8F3EC65D
:100E0000A24785073EC4B247F5D7B71702409C43B7
:100E10001397E700635A070085473EC63247854768
:100E20006309F7004101828002C632478547E31B10
:100E3000F7FEB7170240D8433706C1FF7D16D8C367
:100E4000D843D8C3D4433717024093E60640D4C3EF
:100E5000D443F18ED4C3D4434166D18ED4C39443DA
:100E600037060001D18E94C31C4393966700E3DDDF
:100E700006FE5C4337160240A146F19B5CC35C430F
:100E800093E727005CC35C42B18BE39ED7FE410130
:100E90008280944593F7060113F6F60099C3DC416E
:100EA0005D8E83D7050013F7F70F39CB18419305F3
:100EB0008004638AB61A930580026381B63A93F57B
:100EC0001700639E053093F52700639C053293F568
:100ED00047006395053693F58700639A053493F5CB
:100EE0000701639E053293F507026392053293F57D
:100EF00007046390053093F507086395052E18C124
:100F00001307F00F6370F70C584193058004639C3E
:100F1000B60A93F6071091C6419B93060010518FB5
:100F200014C993F6072089CA931646001377F7F081
:100F3000558F9306002014C993F6074099CAFD7691
:100F40009386F60F758F93168600558F9306004093
:100F500014C9856693860680B3F5D70081C9C57527
:100F6000FD156D8F9315C6004D8F14C993963701EB
:100F700063DB0600B706F1FFFD16758F93160601B9
:100F8000558F856614C99396270163DB0600B70663
:100F900010FFFD16758F93164601558F896614C98B
:100FA0009396170163DB0600B70600F1FD16758FF7
:100FB00093168601558F916614C9C207C18763C70E
:100FC000072858C1828093058002638AB61493F67D
:100FD000071099C2419B518F93F6072091C6137752
:100FE000F7F093164600558F93F6074081CAFD76B9
:100FF0009386F60F758F93168600558F939647014B
:1010000063D80600C576FD16758F9316C600558FFA
:101010009396370163D90600B706F1FFFD16758F69
:1010200093160601558F9396270163D90600B706DC
:1010300010FFFD16758F93164601558F9396170175
:1010400063D90600B70600F1FD16758F9316860169
:10105000558FC207C187E3D607F6120711837206C0
:10106000518F58C185B793F5170089C5419B8545B8
:10107000518F0CC993F5270081C99315460013774A
:10108000F7F04D8F89450CC993F5470091C9FD755F
:101090009385F50F6D8F931586004D8F91450CC983
:1010A00093F5870089C9C575FD156D8F9315C60029
:1010B0004D8FA1450CC993F5070191C9B705F1FF03
:1010C000FD156D8F931506014D8FC1450CC993F524
:1010D000070299C9B70510FFFD156D8F93154601DD
:1010E0004D8F930500020CC993F5070499C9B70504
:1010F00000F1FD156D8F931586014D8F930500044A
:101100000CC993F50708E38C05DE12079315C60199
:1011100011834D8F930500080CC918C1D5B393F600
:10112000071091C6419B93060010518F54C993F646
:10113000072089CA931646001377F7F0558F930658
:10114000002054C993F6074099CAFD769386F60F9E
:10115000758F93168600558F9306004054C9856697
:1011600093860680B3F5D70081C9C575FD156D8FCF
:101170009315C6004D8F54C99396370163DB060063
:10118000B706F1FFFD16758F93160601558F85661C
:1011900054C99396270163DB0600B70610FFFD16BE
:1011A000758F93164601558F896654C9939617011A
:1011B00063DB0600B70600F1FD16758F93168601F6
:1011C000558F916654C9C207C187E3DC07DE120759
:1011D00011837206A167518F5CC958C1E5B3419B69
:1011E000518FD5B1120711839315C6014D8F18C1C8
:1011F00001BBB70500F1FD156D8F931586014D8F6D
:10120000DDB91377F7F0931546004D8FC9B1B705D7
:1012100010FFFD156D8F931546014D8FC9B9B705A8
:10122000F1FFFD156D8F931506014D8F6DB9C575D5
:10123000FD156D8F9315C6004D8F55B1FD759385C6
:10124000F50F6D8F931586004D8F71B112071183C5
:101250007206A167518F1CC958C1ADB393F5170031
:1012600089C5419B8545518F4CC993F5270081C99C
:10127000931546001377F7F04D8F89454CC993F5C8
:10128000470091C9FD759385F50F6D8F9315860005
:101290004D8F91454CC993F5870089C9C575FD15DA
:1012A0006D8F9315C6004D8FA1454CC993F507016D
:1012B00091C9B705F1FFFD156D8F931506014D8F8F
:1012C000C1454CC993F5070299C9B70510FFFD1533
:1012D0006D8F931546014D8F930500024CC993F510
:1012E000070499C9B70500F1FD156D8F93158601A7
:1012F0004D8F930500044CC993F50708E38105C0A1
:1013000012079315C60111834D8F930500084CC930
:1013100018C1FDB60CC9828019C20CC982804CC9A3
:101320008280371702405C439146B18B6385D700BA
:10133000A1466385D706B7177A00938707201CC19B
:10134000371602405442370700201307C701918225
:10135000BD8ABA9683C60600B3D7D7005CC1544293
:10136000A1829D8ABA9683C60600B3D6D70014C55B
:101370005442AD829D8A369703470700B3D7E700F2
:101380005CC558423983937637001387418036977E
:1013900003470700B3D7E7021CC982805C43B7F656
:1013A000FF1F584383A6C6704166C983BD8B718FEA
:1013B000139616018907635F060289466389D70C75
:1013C000BD466389D70CC146639DD70A8146BD4798
:1013D00005EB3747024003270780418B2DCB37179A
:1013E0007A0013070720B387E7021CC1B1DA8583AF
:1013F0001CC1B9B745468146E39CC7FCC94771DBB0
:10140000B7150240D8551316F700D855635906048E
:1014100011833D8B37167A000507130606203356D5
:10142000E60210C1D85521833D8B39C78545630637
:10143000B706BD45630AB70609073307C702371663
:10144000024050563D8A05063357C70215A037178C
:101450003D0013070790B387E7021CC141BF3D8BD6
:101460001306170037177A00130707203357C702F0
:10147000B387E7021CC19DBF13172600329705836F
:101480007DBFC5466397D7028146C14791B7814664
:10149000C947B5B78546B54725BF1317160032971C
:1014A0000E073297058361BF1317260032970A078C
:1014B00079B7814631BF99C5371702405C4B5D8DC6
:1014C00048CB8280B7170240D84B1345F5FF798D82
:1014D000C8CB828099C5371702401C4F5D8D08CF5D
:1014E0008280B7170240984F1345F5FF798D88CF5A
:1014F0008280B7170240D857B70600F9FD16758FDE
:10150000D8D7D8576205598DC8D78280B7170240FF
:10151000D857B70600F8FD16758FD8D7D8576E057F
:10152000598DC8D78280B7170240D857B70600D068
:10153000FD16758FD8D7D8577205598DC8D78280B8
:1015400009C9371702405C57B7060040D58F5CD7F2
:101550008280B7160240DC56370700C07D17F98F2E
:10156000DCD68280371702405C577E05860785836C
:101570005CD75C575D8D48D78280EFE27FCB835686
:10158000050103D76500F577FD17F58FD98F03D7D0
:10159000C5002318F5002A840355C500AE84FD77E5
:1015A00083D5450003D684009387379F83D6A40054
:1015B000E98FCD8FD18FD58F2316F4008357440147
:1015C00001116800C207C18393F7F7CFD98F231A9F
:1015D000F400813BB747014093870780630DF4080F
:1015E00052478356C40093171700BA97C2068E0756
:1015F000C186BA97984063C006040A07B3D7E702CA
:10160000130740060356C40042064186B3D6E702DC
:10161000B3F7E70292066340060492079387270315
:10162000B3D7E702BD8BD58FC207C1832314F40063
:1016300005616FE03FC20607B3D7E7021307400614
:101640000356C40042064186B3D6E702B3F7E70269
:101650009206E35406FC8E0793872703B3D7E7026D
:1016600013F77700B367D700C207C1832314F400D0
:1016700005616FE03FBE6247ADB7EFE27FBBDD21A2
:10168000B707002003A707039307803E01453356A1
:10169000F702B7F700E023A0070023A2070088C7DE
:1016A0008145CCC781463D4790CBD4CB98C3B7E7A3
:1016B00000E0056723A0E710C529FDBFB7F700E0EC
:1016C00023A20700938781839843050798C373007B
:1016D0002030EFE2FFB5411185452145E53B371448
:1016E0000140130504C0AD653531ED772312F100DB
:1016F000C1474C00130504C03EC68D473EC4EFF001
:101700004FF991674C002312F100130504C09307B1
:1017100080043EC6EFF0EFF741016FE0BFB3828077
:10172000B7170140096701C523A8E7C0828023AA33
:10173000E7C08280B7170140216701C523A8E7C031
:10174000828023AAE7C0828085476304F504EFE224
:101750003FAEB71401402E8413F61500138504C064
:1017600089655D3E13561440138504C0058AA16542
:10177000653613562440138504C0058A9165693E79
:1017800013563440058A8565138504C071366FE0B1
:101790007FAC828085476308F504B717014003A535
:1017A00087C0938707C09C47358105891397070138
:1017B0006354070013652500B7170140938707C0DE
:1017C0009C47139717016354070013654500B7172B
:1017D0000140938707C09C47139737016357070061
:1017E0001365850082801305F00F82801388F5FF52
:1017F0008146A9C937170140130707C0096E09635D
:101800008568FD55232A670093771500B9C32328FF
:10181000170185820581814739C201008507E31ED2
:10182000F6FE1C47939E170163D40E0093E606084C
:101830002328C701814701008507E31EF6FE7D18B6
:10184000E312B8FCB7170140096723AAE7C0368541
:101850008280232A17018582058181475DFE1C470E
:10186000939E170163DA0E002328C7017D1893E6C3
:101870000608E319B8F8F9B72328C7017D18E31360
:10188000B8F8C9B71388F5FF8146A9C937170140D1
:10189000130707C0096E09638568FD552328670093
:1018A00093771500B9C323281701858205818147E5
:1018B00039C201008507E31EF6FE1C47939E1701FF
:1018C00063D40E0093E60608232AC701814701006E
:1018D0008507E31EF6FE7D18E312B8FCB71701403A
:1018E000096723A8E7C036858280232A17018582ED
:1018F000058181475DFE1C47939E170163DA0E0048
:10190000232AC7017D1893E60608E319B8F8F9B74A
:10191000232AC7017D18E313B8F8C9B71388F5FF68
:101920008146A9C937170140130707C0096E09632B
:10193000A168FD55232A670093771500B9C32328B2
:10194000170185820581814739C201008507E31EA1
:10195000F6FE1C47939E170163D40E0093E606081B
:101960002328C701814701008507E31EF6FE7D1885
:10197000E312B8FCB7170140096723AAE7C0368510
:101980008280232A17018582058181475DFE1C47DD
:10199000939E170163DA0E002328C7017D1893E692
:1019A0000608E319B8F8F9B72328C7017D18E3132F
:1019B000B8F8C9B71388F5FF8146A9C937170140A0
:1019C000130707C0096E0963A168FD552328670046
:1019D00093771500B9C323281701858205818147B4
:1019E00039C201008507E31EF6FE1C47939E1701CE
:1019F00063D40E0093E60608232AC701814701003D
:101A00008507E31EF6FE7D18E312B8FCB717014008
:101A1000096723A8E7C036858280232A17018582BB
:101A2000058181475DFE1C47939E170163DA0E0016
:101A3000232AC7017D1893E60608E319B8F8F9B719
:101A4000232AC7017D18E313B8F8C9B7AA881388F9
:101A5000F5FF0145A1CDB7150140938505C0096F7C
:101A6000896E216E7D5323AAD50193F70808A9C773
:101A700023A8C50106058608814719E2A1A0BA87F7
:101A8000010013871700E31CE6FE9445014723A8D5
:101A9000E501B982858A558D11A03687010093062C
:101AA0001700E39CE7FE7D18E31F68FAB7170140B3
:101AB000096723AAE7C0828023AAC5010605860814
:101AC00081475DFE94457D1823A8E501B982858A8A
:101AD000558DE31A68F8D9BFAA881388F5FF014528
:101AE000A1CDB7150140938505C0096F896E216EA0
:101AF0007D5323A8D50193F70808A9C723A8C501DA
:101B000006058608814719E2A1A0BA87010013875C
:101B10001700E31CE6FE9445014723AAE501B982BC
:101B2000858A558D11A03687010093061700E39C26
:101B3000E7FE7D18E31F68FAB7170140096723A87D
:101B4000E7C0828023AAC5010605860881475DFE9D
:101B500094457D1823AAE501B982858A558DE31A3B
:101B600068F8D9BFEFE2CFEC23AE0182996789070D
:101B7000239AF128894723A0F184EFE06FEE054511
:101B8000EFE00FF16FE00FEDEFE28FEA2E84AA8510
:101B9000228613854109852523AE81826FE08FEB74
:101BA000094723A0E1848280EFE28FE81384C18398
:101BB0001C4091CB0C401385410951240945232039
:101BC0000400EFE08FFC6FE0EFE8EFE26FE61384D4
:101BD00001841440184093874129050718C0184014
:101BE000B6972380A700930700206304F7006FE0F7
:101BF0006FE610409385412913051008EFE00FFCB4
:101C000018408947E3D5E7FE094701001C40E34E31
:101C1000F7FE6FE02FE4EFE2AFE1138401841040A0
:101C20009385412913051008EFE04FF918408947C3
:101C300063D7E700094701001C40E34EF7FE6FE061
:101C40006FE1EFE2EFDE03475500834645004111A7
:101C50002207558F9376F70F834715009DC21546CF
:101C6000638AC70A6372F6062D466387C70C93061C
:101C700000096384D7022947638AE70A41016FE0BC
:101C80006FDDA9466384D70A63F3F608AD4663881F
:101C9000D70A93060009E393D7FE9306F003814722
:101CA00063E9E60089679387873F06073E97835776
:101CB0000700238AF18413D6870093864185A38089
:101CC000C60041016FE00FD90D476382E708114755
:101CD000E396E7FA8947E393F6FA8347350003472B
:101CE000250037050020A207D98F13D6870093D689
:101CF000B700130785031D8A8D8A13058503230307
:101D0000F700A302C7002302D700B52885BF1547F7
:101D1000E396E7F68946238AD184138741859307A2
:101D20000006A300F70041016FE0CFD24147238AAC
:101D3000E18441016FE00FD28547E391F6F4034758
:101D400035008947630EF702EFF07F9D05BF894795
:101D5000E396F6F2834735008346250037070020D7
:101D6000A207D58F93D6870013058703230CF702AC
:101D7000A30CD70223850180A38501802920FDBD06
:101D8000EFF03F95E5BDEFE2AFCA83475500411143
:101D9000231201000547638CE708A5E32314010023
:101DA0008347450005476389E706BDEB2313010020
:101DB0008346150003460500034725008347350089
:101DC000A206D18E4207558FE207D98F3EC0B14798
:101DD0002315F10023160100196473100480375590
:101DE00000408A8513050580EFF02FF9130484085D
:101DF0007310048041016FE0EFC50947E390E7FAF3
:101E0000930700402314F10085672312F1008347F4
:101E100045000547E39BE7F88D672313F10049BFB1
:101E20000947E395E7F889672313F10051B7930752
:101E300000602314F10085672312F10095B7EFE2EB
:101E40002FBC635FB030896A896C372D00002A8B04
:101E50002E8A0144814B13890185938A8A47938C8A
:101E60008C4F138CC181130D8DAD832709001D4745
:101E70006365F7188A07D6979C438287B3078B0060
:101E800083C6070003A78184938741842380D700FA
:101E9000A38007009307E00805046301F71C9D4732
:101EA0002320F900E34344FD22856FE02FB983D955
:101EB000418403A78184850923A631859307E0081F
:101EC0006303F7008E098144938D01810145EFF092
:101ED0003F8503A70D0081476359E0000100010021
:101EE00003A70D008507E3CBE7FE0545EFF05F8311
:101EF00003A70D0081476359E0000100010003A71B
:101F00000D008507E3CBE7FE8504E39199FC0145CD
:101F1000EFF01F8123200900E34944F571B7B307AF
:101F20008B0083C9070083A4C18413F50908EFF06F
:101F30007F8003A601818504A6854E85829B83A7A9
:101F40008184050493F70702F1D74131232009006A
:101F5000E1B7B3078B0083C6070003A7818423A6DC
:101F6000D184937727000504638907121377070448
:101F70004DCF91472320F900E34944EF35B7B3072C
:101F80008B0083C70700938981841397870123A05F
:101F9000F90061870504635E070C13C70708DD4677
:101FA00063E6E62289660A079386864936971843D0
:101FB00002879389818403A7090093772700CDE7DF
:101FC000A1459384C184418B1305F00F11C7B3075A
:101FD0008B0003C50700050403A60181829B83A72C
:101FE000090013F70702631A0710898B9840E1EB89
:101FF00079C7832709007D1798C02147E394E7EA52
:102000002320090022856FE06FA333078B009384A0
:10201000C18483470700944003A78184A207D58F1A
:102020009CC0937707040504A9F78D472320F90086
:10203000E34D44E395BDB3078B0003C6070003A738
:10204000818493874184A380C700930660080504B8
:10205000630ED7069306F0086317D704954723202D
:10206000F900E34444E189B59384C1848C4085053B
:1020700099BF13F70704A58B49C72147638DE70C68
:1020800025476381E70E1305A00F813603A50900DC
:10209000814B253E832709008DB789472320F9000E
:1020A000E34544DD11B583C50700058713751700A7
:1020B000EFF08FE923200900E34944DBF5B37D17F6
:1020C0002320090098C0E34244DBF9BB03A7418108
:1020D00083C6070093178600098BD58F31C3154738
:1020E000938D01816353F7009547E29783C70700FB
:1020F0002320090023A0FD0005B5C13C83A70900EA
:10210000EDB5B9C30547638EE70C21476380E70E41
:102110002547E39AE7F6B72B0000938BCB9135A0C8
:102120003D47938D01816353F700BD47E69783C711
:1021300007002320090023A0FD00F9BB99472320B5
:10214000F900E34444D38DB3EA8B85472320F9009B
:10215000E34D44D191BBB72B0000938B4B88F5B76F
:10216000014499B3B71B0000938BCB7EF9BF8587E1
:1021700013F51700EFF00FE2893C83270900B5BD86
:102180009387418198431367170098C3E34F44CD69
:1021900021BB938741819843799B98C3E34744CD02
:1021A00021B3938741819843759B98C3E34F44CBF8
:1021B000E5B995348327090089B593874181984310
:1021C0001367270098C3E34244CBF9B91305A00F66
:1021D000EFF0BF9F03A50900EFF03F9F83270900A1
:1021E00029BDB72B0000938BCBA485B7B72B00007C
:1021F000938B4B9B99BFB3C7A5008D8B3307C5004D
:1022000081E78D4763EEC700AA876370E50A83C63E
:10221000050085078505A38FD7FEE3EAE7FE8280E8
:1022200093763500AA8791CA83C605008507850580
:10223000A38FD7FE93F63700FDB79376C7FF1386BB
:1022400006FE63F0C70683A3050083A2450083AFA3
:10225000850003AFC50083AE050103AE450103A3AE
:10226000850183A8C5019385450223A0770003A8B3
:10227000C5FF23A2570023A4F70123A6E70123A843
:10228000D70123AAC70123AC670023AE17019387A8
:10229000470223AE07FF75B790419107910523AE22
:1022A000C7FEE3EBD7FEE3E4E7F682803E070000DB
:1022B00000070000A2040000AC060000A204000019
:1022C000F206000062070000A2040000A007000060
:1022D0007E0700009207000054050000A4080000DB
:1022E0008C0800004E08000036080000A40800001A
:1022F000A40800001E080000B2070000BC0800008F
:10230000340900001C09000002090000EA0800006E
:10231000D20800000902370002010080FA09040017
:102320000002FFFFFF0407058102400000070502CD
:10233000024000000904010002FFFFFF05070583BA
:1023400002400000070504024000000009023700B7
:1023500002010080FA0904000002FFFFFF040705E4
:1023600081020002000705020200020009040100C8
:1023700002FFFFFF050705830200020007050402B4
:10238000000200001201000200000040030410607F
:1023900000050102030100000A06000200000040DF
:1023A000010000001A0346005400320032003300DE
:1023B000320048002D004A00540041004700000050
:1023C0001A03460054003200320033003200480045
:1023D0002D0055004100520054000000100346003B
:1023E0005400320032003300320048000A03460035
:1023F0005400440049000000000803041060000578
:102400008032000000029610A61A00004600100359
:102410004F00700065006E002D00450043001A0358
:102420005500530042002000440065006200750022
:1024300067006700650072000000000000000000F7
:10244000000000000000000000000000000000008C
:10245000000000000000000000000000000000007C
:10246000000000000000000000000000000000006C
:1024700000000000000027107E1F0000521F000017
:102480000A200000B21F00001E1F0000AE1E000048
:102490007C1E0000362000003C2100006E21000060
:1024A0003C2100006E2100008021000092210000EC
:1024B0003C210000B2210000A41E0000A41E000068
:1024C000A2210000BA210000A41E0000A41E0000EA
:1024D0003C2100003C210000CC210000CC21000068
:1024E000CC210000CC210000CC210000CC21000038
:1024F000A41E0000A41E000001010101010203044A
:0825000004050607080808099C
:102508001A03300031003200330034003500360041
:102518003700380039004100420000000000000088
:102528000102030401020304060708090000000071
:10253800004495080204060800C2010000000800D3
:102548000100000002000000040309040105080C52
:08255800101400000000000057
:00000001FF
