:100000006F00104D130000001300000013000000EB
:100010001300000013000000130000001300000094
:100020001300000013000000130000001300000084
:08003000130000007300100032
:100038000000000000000000120C0000140C00007A
:1000480000000000160C0000000000000000000086
:10005800180C00001A0C000000000000000000004E
:1000680052170000000000001E0C000000000000F5
:10007800200C0000220C0000240C0000260C0000BC
:10008800280C00002A0C00002C0C00002E0C00008C
:10009800300C0000320C0000340C0000360C00005C
:1000A800380C00003A0C00003C0C00003E0C00002C
:1000B800400C0000420C0000440C0000460C0000FC
:1000C800480C00004A0C00004C0C00004E0C0000CC
:1000D800500C0000520C0000540C0000560C00009C
:1000E800580C00005A0C00005C0C00005E0C00006C
:1000F800600C0000620C0000640C0000660C00003C
:10010800680C00006A0C00006C0C00006E0C00000B
:10011800700C0000720C0000740C0000760C0000DB
:10012800780C00007A0C00007C0C00007E0C0000AB
:10013800800C0000820C0000840C0000860C00007B
:10014800880C00008A0C00008C0C00008E0C00004B
:10015800900C0000920C0000940C0000960C00001B
:10016800980C00009A0C00009C0C00009E0C0000EB
:10017800A00C0000A20C0000A40C0000A60C0000BB
:10018800A80C0000FC030000AC0C0000AE0C000042
:10019800B00C0000B20C0000B40C0000B60C00005B
:1001A800B80C0000BA0C0000BC0C0000BE0C00002B
:1001B800C00C0000C20C0000C40C0000C60C0000FB
:1001C800C80C0000CA0C0000CC0C0000CE0C0000CB
:1001D8000000000000000000000000000000000017
:1001E8000000000000000000000000000000000007
:0801F8000000000000000000FF
:10020000397101436EC619A0397141536AC866CA73
:1002100062CC5ECE19A0397101535AD056D252D455
:100220004ED64AD826DA22DC06DE330161408282CD
:1002300041114AC026C222C406C68282B24D410183
:10024000024D924C224CB24B4101024B924A224A3F
:10025000B2494101024992442244B24041018280A4
:10026000EFF21FFD0545EF1020350145EF10402F3F
:100270000545EF10402D0545EF1020300545EF10E6
:1002800060310565854513050580EF102026D9B737
:10029000B737024019472380E740B706002003A77D
:1002A00006039307703E63FDE70001471306803E97
:1002B000010083A706030507B3D7C702E36AF7FE69
:1002C00001EDB73702402380074037072000B7E72A
:1002D00000E023A4E71882803737024083460740B6
:1002E0009307074093F6B60F2300D740C146A3807B
:1002F000D700930690022300D74093067002238113
:10030000D700B7061400A90694CB93060004239CDB
:10031000D708930600202390D70A2394D70A938600
:100320000186D4CF9386018AF4CF938601AAD4D3D1
:10033000938601CAF4D3938601EAD4D7239C070C91
:100340008946238DD70CA38D070C239E070C238F82
:10035000D70CA381070E2392070E2383D70EA38504
:10036000070E8347074093E707012300F740B7E7ED
:1003700000E03707200023A4E71082808947630F3D
:10038000F50091476303F5008280B737024003C749
:10039000B74E1377C70FA385E74E8280B737024069
:1003A00003C7374E1377C70FA381E74E82809307A9
:1003B00010086306F502930730086303F500828096
:1003C000B7370240420623A2B74641822392C74E66
:1003D00003C7674E1377C70F2383E74E8280B73773
:1003E0000240420623AEB7444182239EC74C03C756
:1003F000E74D1377C70F238FE74C82805971B737CA
:100400000240A2D6A6D4CAD2CED0D2CED6CCDACA98
:1004100082E686E48AE28EE012FE16FC1AFA1EF8E4
:100420002AF62EF432F236F03AEE3EEC42EA46E894
:1004300072E676E47AE27EE09387074003C7A7007E
:1004400083C6B7001377F70F137607024DC229470B
:10045000238DE70CA38DE70C138701861C435043C3
:100460001389C18213F4F70F2320F9002322C90056
:100470009377040689EF834719002D46636CF600D5
:1004800009668A071306C65EB2979C4382879377F4
:100490000402CDC3B73702402D47238DE74CA38D0F
:1004A000E74CB7370240130700022385E7409387E4
:1004B00007403654A65416598659764AE64A564B92
:1004C0003660A660166186617272E2725273C27300
:1004D0003275A275127682767267E2675268C268D8
:1004E000326EA26E126F826F6561730020301376D8
:1004F00027001DCA93F6F60F13F706032DC7130640
:100500000002631BC700BD8A05476382E64A638C0D
:1005100006400D476387E614B73702400947238535
:10052000E7409387074071B793761700C9E62385A4
:10053000E70041B71374040431DC1385C182EF1066
:10054000C0790344090083546900620461846346EE
:10055000040E639E040CB7370240239C074C2147CE
:10056000238DE74C3DBF83D5C70013F7F60009463E
:10057000C205C1816303C7481146630BC74449FFE5
:1005800093F60604D1DA1389C1828347090093F7F1
:1005900007066383075403471900231309009307D1
:1005A00000026305F74EB7370240239C074C2147F2
:1005B000238DE74C95B723840182A3840182238590
:1005C000018237071400A3810700290798CB13077E
:1005D0000004239CE708130700202390E70A2394D4
:1005E000E70A13870186D8CF1387018AF8CF1387CC
:1005F00001AAD8D3138701CAF8D3138701EAD8D741
:10060000239C070C0947238DE70CA38D070C239E21
:10061000070C238FE70CA381070E2392070E238379
:10062000E70EA385070E05472385E70059B5B737C1
:1006300002402147A38DE74CADB593070004268700
:1006400063E0970442074183998CC204C18023135D
:100650009900B7370240239CE74C2147238DE74C94
:1006600089B503C7670E1377C70F13672700238366
:10067000E70E03C7670E134787002383E70E69BDA4
:1006800013070004C1B79377F4010947E39DE7EA34
:1006900003472900E31907EA034749009146630627
:1006A000D75263F0E644930710086302F7549307A8
:1006B0003008E311F7DEB737024003C7674E136710
:1006C00037002383E74E8354690041B5034729006F
:1006D000835469002384E1828DBD9377F401094737
:1006E000E393E7E603472900E31F07E403474900D4
:1006F00091466307D74E63F3E64093061008630301
:10070000D75093063008E317D7D837370240230372
:10071000F74E8354690015BD230007009376F4015A
:100720008947638FF62EA30007002313F9000947BA
:1007300062046184E35D04EE814411BF0356290025
:100740001D4793578600636CF71209678A071307E2
:10075000C761BA979C43828783462900A384D182CC
:1007600005472385E18283546900C5B3854723008B
:1007700007002313F900054765BF83C791828546AB
:100780002313D9002300F70005475DB783C7B18263
:1007900005476309F74089699387C96803CA370029
:1007A00003C72700220A3A9A938A4183420A23A068
:1007B000FA00135A0A019389C96883546900014BEE
:1007C00063779A342313490193070004D28463F4B6
:1007D000470193040004C204C180CE852686138598
:1007E0000186EF103055A69923A03A019307F00F28
:1007F000E302FBCAD28491BB89699387896D938A8E
:10080000418303CA896D23A0FA009389896D75B766
:100810001376F60F954763E4C70689670A06938740
:10082000C763B2979C438287B737024093870740DC
:1008300083C7870005478D8B6381E7348969938778
:10084000496503CA370003C62700220A329A938AF1
:100850004183420AA385018223A0FA00135A0A01A8
:100860009389496599BF89699387496C938A4183C4
:1008700003CA496C23A0FA009389496C3DBF835792
:100880006900938A418383A90A00E38507C0014A6E
:10089000130BF00F05BF9387C181938A418303CA6D
:1008A000C18123A0FA009389C18101BF896993871F
:1008B0000970938A418303CA097023A0FA009389BF
:1008C0000970E5BD89699387496E938A418303CA9C
:1008D000496E23A0FA009389496EC5B5B709002077
:1008E00093870900938A418303CA090023A0FA0071
:1008F00093890900D9B589699387C971938A41831E
:1009000003CAC97123A0FA009389C9717DB58969A9
:100910009387C972938A418303CAC97223A0FA00DC
:100920009389C97259BD1389C1820354690001E4D6
:100930002147A38DE70C8347090093F70706B1EF22
:10094000834719001547638DE71E19476395E71E16
:1009500093070004A28A63E987049384418383A9EF
:100960000400139A0A01135A0A01CE855286138590
:100970000186EF10303C33044441D299231389009F
:1009800023A03401B7370240239C574D03C7A74D1E
:1009900013478700238DE74C41B613070004E39DFE
:1009A000E7B6A28AE3FB87FA930A00047DB703C780
:1009B000E70D1377C70F13672700238FE70C03C7D3
:1009C000E70D13478700238FE70CEF10E026A9B649
:1009D00003C7B70E13478700A385E70E03C7B70EFB
:1009E0001377C70F13672700A385E70EB7270020EB
:1009F0009387476D2396B7C005B603C7370E138597
:100A000001AA13478700A381E70E03C7370E1377A8
:100A1000C70F13672700A381E70EEF104020EDBC3E
:100A20008347490011466386C712637CF6021306AA
:100A30001008638DC712130630086393C712B737C7
:100A400002409387074083C7670E8D8BF51793B7D6
:100A50001700A30007002300F7002313D90009475C
:100A6000C1B9639FD70EB73602409386064083C64E
:100A7000360E2313F900A300070093F73600F5178D
:100A800093B717002300F70009475DB193870186EC
:100A900003CE070003C3170083C8270003C837002D
:100AA00083C5470003C6570083C667003707002089
:100AB00093078703230CC70313058703A3806700ED
:100AC00023811701A38107012382B700A382C700F6
:100AD0002383D700EF10E04683576900E39E07A207
:100AE000D9B4E319F79AB737024003C7374E1367F3
:100AF0003700A381E74E8354690081BCE31CF7985B
:100B0000B7370240A381074E835469003DBC930769
:100B10000004268A63F49700130A0004420A135A59
:100B20000A01CE85528613850186D299EF10902056
:100B300023A03A0119BCB7370240239C074CE9BAFD
:100B400003C78182B73702401377F70FA381E740CD
:100B5000E1B2B73702409387074083C7B70EF5B5B8
:100B60008947A30007002313F9002DB2B7370240CD
:100B70009387074083C7E70DC9BD89691387C96893
:100B8000034A370083452700220A2E9A938A41831D
:100B9000420AA385F18223A0EA00135A0A0193892D
:100BA000C96821B989699387496503CA370003C7B2
:100BB0002700220A3A9A938A4183420A23A0FA0024
:100BC000135A0A0193894965CDBEB737024003C75E
:100BD000B74E13673700A385E74E83546900B5B25B
:100BE000B7370240A385074E83546900B9BAB737B7
:100BF000024003C7E74D13673700238FE74C835448
:100C00006900A1B237370240230FF74C83546900C3
:100C10002DBA01A001A001A001A001A001A001A086
:100C200001A001A001A001A001A001A001A001A0BC
:100C300001A001A001A001A001A001A001A001A0AC
:100C400001A001A001A001A001A001A001A001A09C
:100C500001A001A001A001A001A001A001A001A08C
:100C600001A001A001A001A001A001A001A001A07C
:100C700001A001A001A001A001A001A001A001A06C
:100C800001A001A001A001A001A001A001A001A05C
:100C900001A001A001A001A001A001A001A001A04C
:100CA00001A001A001A001A001A001A001A001A03C
:100CB00001A001A001A001A001A001A001A001A02C
:100CC00001A001A001A001A001A001A001A001A01C
:100CD00097010020938101B6177100201301813222
:100CE00017250000130585B697F5FF1F93858531FD
:100CF0001386818263FAC5008322050023A0550074
:100D000011059105E3EAC5FE138581829715002040
:100D10009385855D6377B500232005001105E36D9C
:100D2000B5FEFD42739002BCAD4273904280B76243
:100D300000009382820873A0023097F2FFFF938233
:100D4000E22F93E2320073905230EF00400197128D
:100D500000009382A29B7390123473002030B71767
:100D600002409843B706FFF841111367170098C374
:100D7000D84337150240B7050200758FD8C3984392
:100D8000B706F7FEFD16758F98C39843B706FCFFAC
:100D9000FD16758F98C3D843B70681FFFD16758F72
:100DA000D8C39843B70600ECFD16758F98C3370774
:100DB000FF0098C723A6070202C402C69843C16673
:100DC0000566558F98C321A0A247638AC7001C41BE
:100DD000ED8F3EC6A24785073EC4B247F5D7B71789
:100DE00002409C431397E700635A070085473EC6BD
:100DF000324785476309F7004101828002C63247C6
:100E00008547E31BF7FEB7170240D8433706C1FFFB
:100E10007D16D8C3D843D8C3D4433717024093E6CE
:100E20000640D4C3D443F18ED4C3D4434166D18E9B
:100E3000D4C3944337060001D18E94C31C439396C8
:100E40006700E3DD06FE5C4337160240A146F19BD6
:100E50005CC35C4393E727005CC35C42B18BE39EB9
:100E6000D7FE4101828090519C459449D84983A87E
:100E70008501D18FD58FD04DD451D98FB3E71701CC
:100E8000184103A88502D18FD58FE176BD06D045E4
:100E9000758FB3E707019441D98F1CC1DC4150C164
:100EA00014C55CC582801C4189C593E717001CC12D
:100EB000828041677917F98F1CC182804CC1828082
:100EC0004841420541818280944593F7060113F61B
:100ED000F60099C3DC415D8E83D7050013F7F70F49
:100EE00039CB184193058004638AB61A93058002B2
:100EF0006381B63A93F51700639E053093F527009A
:100F0000639C053293F547006395053693F587009A
:100F1000639A053493F50701639E053293F5070242
:100F20006392053293F507046390053093F5070843
:100F30006395052E18C11307F00F6370F70C584125
:100F400093058004639CB60A93F6071091C6419BF3
:100F500093060010518F14C993F6072089CA93167F
:100F600046001377F7F0558F9306002014C993F6C7
:100F7000074099CAFD769386F60F758F9316860003
:100F8000558F9306004014C9856693860680B3F595
:100F9000D70081C9C575FD156D8F9315C6004D8F9E
:100FA00014C99396370163DB0600B706F1FFFD16FF
:100FB000758F93160601558F856614C99396270180
:100FC00063DB0600B70610FFFD16758F931646010A
:100FD000558F896614C99396170163DB0600B7061F
:100FE00000F1FD16758F93168601558F916614C911
:100FF000C207C18763C7072858C182809305800252
:10100000638AB61493F6071099C2419B518F93F6E9
:10101000072091C61377F7F093164600558F93F685
:10102000074081CAFD769386F60F758F931686006A
:10103000558F9396470163D80600C576FD16758FC8
:101040009316C600558F9396370163D90600B706ED
:10105000F1FFFD16758F93160601558F93962701A4
:1010600063D90600B70610FFFD16758F931646016B
:10107000558F9396170163D90600B70600F1FD1648
:10108000758F93168601558FC207C187E3D607F681
:10109000120711837206518F58C185B793F5170057
:1010A00089C5419B8545518F0CC993F5270081C99E
:1010B000931546001377F7F04D8F89450CC993F5CA
:1010C000470091C9FD759385F50F6D8F93158600C7
:1010D0004D8F91450CC993F5870089C9C575FD15DC
:1010E0006D8F9315C6004D8FA1450CC993F507016F
:1010F00091C9B705F1FFFD156D8F931506014D8F51
:10110000C1450CC993F5070299C9B70510FFFD1534
:101110006D8F931546014D8F930500020CC993F511
:10112000070499C9B70500F1FD156D8F9315860168
:101130004D8F930500040CC993F50708E38C05DE79
:1011400012079315C60111834D8F930500080CC932
:1011500018C1D5B393F6071091C6419B93060010B2
:10116000518F54C993F6072089CA93164600137706
:10117000F7F0558F9306002054C993F6074099CA9B
:10118000FD769386F60F758F93168600558F93061E
:10119000004054C9856693860680B3F5D70081C99F
:1011A000C575FD156D8F9315C6004D8F54C9939667
:1011B000370163DB0600B706F1FFFD16758F931646
:1011C0000601558F856654C99396270163DB060097
:1011D000B70610FFFD16758F93164601558F896669
:1011E00054C99396170163DB0600B70600F1FD169C
:1011F000758F93168601558F916654C9C207C187B2
:10120000E3DC07DE120711837206A167518F5CC908
:1012100058C1E5B3419B518FD5B112071183931586
:10122000C6014D8F18C101BBB70500F1FD156D8FCB
:10123000931586014D8FDDB91377F7F093154600AE
:101240004D8FC9B1B70510FFFD156D8F9315460180
:101250004D8FC9B9B705F1FFFD156D8F93150601C7
:101260004D8F6DB9C575FD156D8F9315C6004D8FEA
:1012700055B1FD759385F50F6D8F931586004D8FD4
:1012800071B1120711837206A167518F1CC958C131
:10129000ADB393F5170089C5419B8545518F4CC966
:1012A00093F5270081C9931546001377F7F04D8F0A
:1012B00089454CC993F5470091C9FD759385F50F94
:1012C0006D8F931586004D8F91454CC993F587001E
:1012D00089C9C575FD156D8F9315C6004D8FA14544
:1012E0004CC993F5070191C9B705F1FFFD156D8F45
:1012F000931506014D8FC1454CC993F5070299C955
:10130000B70510FFFD156D8F931546014D8F9305A1
:1013100000024CC993F5070499C9B70500F1FD1502
:101320006D8F931586014D8F930500044CC993F57D
:101330000708E38105C012079315C60111834D8F7D
:10134000930500084CC918C1FDB60CC9828019C2AA
:101350000CC982804CC98280371702405C43914699
:10136000B18B6385D700A1466385D706B7177A008E
:10137000938707201CC137160240544237070020CC
:101380001307C7019182BD8ABA9683C60600B3D7F8
:10139000D7005CC15442A1829D8ABA9683C60600DA
:1013A000B3D6D70014C55442AD829D8A3697034701
:1013B0000700B3D7E7005CC55842398393763700FE
:1013C00013874180369703470700B3D7E7021CC94C
:1013D00082805C43B7F6FF1F584383A6C670416600
:1013E000C983BD8B718F139616018907635F06024F
:1013F00089466389D70CBD466389D70CC146639D76
:10140000D70A8146BD4705EB3747024003270780CF
:10141000418B2DCB37177A0013070720B387E702DC
:101420001CC1B1DA85831CC1B9B745468146E39C2E
:10143000C7FCC94771DBB7150240D8551316F70032
:10144000D8556359060411833D8B37167A0005077A
:10145000130606203356E60210C1D85521833D8B72
:1014600039C785456306B706BD45630AB706090750
:101470003307C7023716024050563D8A05063357D8
:10148000C70215A037173D0013070790B387E7027F
:101490001CC141BF3D8B1306170037177A00130795
:1014A00007203357C702B387E7021CC19DBF13173C
:1014B0002600329705837DBFC5466397D7028146D4
:1014C000C14791B78146C947B5B78546B54725BFDE
:1014D0001317160032970E073297058361BF131753
:1014E000260032970A0779B7814631BF99C5371769
:1014F00002405C4B5D8D48CB8280B7170240D84BD1
:101500001345F5FF798DC8CB828099C53717024006
:101510001C4F5D8D08CF8280B7170240984F13454E
:10152000F5FF798D88CF828099C5371702405C4FCF
:101530005D8D48CF8280B7170240D84F1345F5FF25
:10154000798DC8CF8280B7170240D857B70600F907
:10155000FD16758FD8D7D8576205598DC8D78280A8
:10156000B7170240D857B70600F8FD16758FD8D7C1
:10157000D8576E05598DC8D78280B7170240D85703
:10158000B70600D0FD16758FD8D7D8577205598D7C
:10159000C8D7828009C9371702405C57B706004098
:1015A000D58F5CD78280B7160240DC56370700C063
:1015B0007D17F98FDCD68280371702405C577E0595
:1015C000860785835CD75C575D8D48D78280EFE2C4
:1015D0003FC68356050103D76500F577FD17F58FE4
:1015E000D98F03D7C5002318F5002A840355C500F9
:1015F000AE84FD7783D5450003D684009387379F5B
:1016000083D6A400E98FCD8FD18FD58F2316F40018
:101610008357440101116800C207C18393F7F7CFD4
:10162000D98F231AF4000D3BB747014093870780F9
:10163000630DF40852478356C40093171700BA97F6
:10164000C2068E07C186BA97984063C006040A078F
:10165000B3D7E702130740060356C400420641868B
:10166000B3D6E702B3F7E702920663400604920797
:1016700093872703B3D7E702BD8BD58FC207C183FA
:101680002314F40005616FE0FFBC0607B3D7E7023F
:10169000130740060356C40042064186B3D6E7024C
:1016A000B3F7E7029206E35406FC8E0793872703FD
:1016B000B3D7E70213F77700B367D700C207C18338
:1016C0002314F40005616FE0FFB86247ADB781C92C
:1016D0008357C5000967D98F2316F5008280035709
:1016E000C500F977FD17F98F2316F500828083571F
:1016F000450109C6DD8D231AB500828093C5F5FF2B
:10170000FD8D231AB5008280EFE29FB2EF00607278
:10171000ED21B707002003A707039307803E01458B
:101720003356F702B7F700E023A0070023A2070013
:1017300088C78145CCC781463D4790CBD4CB98C361
:10174000B7E700E0056723A0E710DD29EF00F00A06
:10175000EDBFB7F700E023A207009387818398438A
:10176000050798C373002030EFE29FAC4111854517
:101770002145613B37140140130504C0AD65F136C6
:10178000ED772312F100C1474C00130504C03EC69B
:101790008D473EC4EFF04FF391674C002312F100E8
:1017A000130504C0930780043EC6EFF0EFF141013A
:1017B0006FE05FAA8280B7170140096701C523A8BF
:1017C000E7C0828023AAE7C08280B7170140216763
:1017D00001C523A8E7C0828023AAE7C0828085478D
:1017E0006304F504EFE2DFA4B71401402E8413F67E
:1017F0001500138504C08965993E1356144013855E
:1018000004C0058AA165A13613562440138504C07F
:10181000058A91652D3E13563440058A85651385EA
:1018200004C035366FE01FA3828085476308F50446
:10183000B717014003A587C0938707C09C47358130
:101840000589139707016354070013652500B7172F
:101850000140938707C09C47139717016354070003
:1018600013654500B7170140938707C09C4713973E
:101870003701635707001365850082801305F00F59
:1018800082801388F5FF8146A9C9371701401307E5
:1018900007C0096E09638568FD55232A67009377A1
:1018A0001500B9C32328170185820581814739C2F4
:1018B00001008507E31EF6FE1C47939E170163D4C3
:1018C0000E0093E606082328C7018147010085071B
:1018D000E31EF6FE7D18E312B8FCB7170140096756
:1018E00023AAE7C036858280232A170185820581D5
:1018F00081475DFE1C47939E170163DA0E00232883
:10190000C7017D1893E60608E319B8F8F9B723284C
:10191000C7017D18E313B8F8C9B71388F5FF8146EE
:10192000A9C937170140130707C0096E0963856805
:10193000FD552328670093771500B9C323281701A5
:1019400085820581814739C201008507E31EF6FEC5
:101950001C47939E170163D40E0093E60608232AC2
:10196000C701814701008507E31EF6FE7D18E312DB
:10197000B8FCB7170140096723A8E7C03685828005
:10198000232A17018582058181475DFE1C47939EAE
:10199000170163DA0E00232AC7017D1893E60608B3
:1019A000E319B8F8F9B7232AC7017D18E313B8F88B
:1019B000C9B71388F5FF8146A9C937170140130736
:1019C00007C0096E0963A168FD55232A6700937754
:1019D0001500B9C32328170185820581814739C2C3
:1019E00001008507E31EF6FE1C47939E170163D492
:1019F0000E0093E606082328C701814701008507EA
:101A0000E31EF6FE7D18E312B8FCB7170140096724
:101A100023AAE7C036858280232A170185820581A3
:101A200081475DFE1C47939E170163DA0E00232851
:101A3000C7017D1893E60608E319B8F8F9B723281B
:101A4000C7017D18E313B8F8C9B71388F5FF8146BD
:101A5000A9C937170140130707C0096E0963A168B8
:101A6000FD552328670093771500B9C32328170174
:101A700085820581814739C201008507E31EF6FE94
:101A80001C47939E170163D40E0093E60608232A91
:101A9000C701814701008507E31EF6FE7D18E312AA
:101AA000B8FCB7170140096723A8E7C036858280D4
:101AB000232A17018582058181475DFE1C47939E7D
:101AC000170163DA0E00232AC7017D1893E6060882
:101AD000E319B8F8F9B7232AC7017D18E313B8F85A
:101AE000C9B7AA881388F5FF0145A1CDB7150140F4
:101AF000938505C0096F896E216E7D5323AAD50198
:101B000093F70808A9C723A8C501060586088147D9
:101B100019E2A1A0BA87010013871700E31CE6FEB3
:101B20009445014723A8E501B982858A558D11A006
:101B30003687010093061700E39CE7FE7D18E31F3C
:101B400068FAB7170140096723AAE7C0828023AA71
:101B5000C5010605860881475DFE94457D1823A8CA
:101B6000E501B982858A558DE31A68F8D9BFAA883C
:101B70001388F5FF0145A1CDB7150140938505C038
:101B8000096F896E216E7D5323A8D50193F708084C
:101B9000A9C723A8C50106058608814719E2A1A0A7
:101BA000BA87010013871700E31CE6FE944501473E
:101BB00023AAE501B982858A558D11A036870100D7
:101BC00093061700E39CE7FE7D18E31F68FAB7173A
:101BD0000140096723A8E7C0828023AAC501060542
:101BE000860881475DFE94457D1823AAE501B982E8
:101BF000858A558DE31A68F8D9BFEFE26FE323AE0B
:101C00000182996789072390F12A894723A0F184EB
:101C1000EFE00FE50545EFE0AFE76FE0AFE3EFE2A0
:101C20002FE12E84AA8522861385010AEF009010E9
:101C300023AE81826FE00FE2094723A0E184828016
:101C4000EFE20FDF1384C1831C4091CB0C4013855E
:101C5000010A212B094523200400EFE02FF26FE059
:101C60006FDFEFE2EFDC13840184144018409387A8
:101C7000012A050718C01840B6972380A7009307CC
:101C800000206304F7006FE0EFDC10409385012A29
:101C900013051008EFE0AFF118408947E3D5E7FEE0
:101CA000094701001C40E34EF7FE6FE0AFDAEFE2B8
:101CB0002FD81384018410409385012A130510083E
:101CC000EFE0EFEE1840894763D7E70009470100CE
:101CD0001C40E34EF7FE6FE0EFD7EFE26FD503470E
:101CE00055008346450041112207558F9376F70F23
:101CF000834715009DC21546638AC70A6372F606BC
:101D00002D466387C70C930600096384D7022947D1
:101D1000638AE70A41016FE0EFD3A9466384D70ADB
:101D200063F3F608AD466388D70A93060009E39388
:101D3000D7FE9306F003814763E9E600896793873E
:101D4000877306073E97835707002380F18613D6D3
:101D5000870093860186A380C60041016FE08FCF84
:101D60000D476382E7081147E396E7FA8947E39353
:101D7000F6FA834735000347250037050020A20700
:101D8000D98F13D6870093D6B700130785031D8A12
:101D90008D8A130585032303F700A302C7002302DE
:101DA000D700452285BF1547E396E7F6894623808D
:101DB000D1861387018693070006A300F70041012F
:101DC0006FE04FC941472380E18641016FE08FC832
:101DD0008547E391F6F40347350089476308F70424
:101DE000EFF05F9D05BF8947E396F6F28347350024
:101DF00003472500A207D98FCA0737C72D0013074D
:101E0000076CC983B347F702370700201305870320
:101E1000A385018013D6870093D60701230CF70210
:101E2000A30CC7022385D180292AEDB5EFF0DF93FB
:101E3000D5B5EFE24FBE5D7185452145EFF0EFEC82
:101E4000854537050400EFF02FEE85450545EFF099
:101E5000EFE993070040371401402314F100E147F4
:101E60002C00130504C03EC88D473EC6EFF0CF8559
:101E70008567938707802C00130504C02314F100A5
:101E8000930780043EC8EFF02F84C14737540040C9
:101E9000B70402403ED6B71700209387474D130A78
:101EA00044809309000809694C101385C4013ED48D
:101EB00052D24EDCCAC402DA02DE82C002D882C22A
:101EC00082C6EFE05FFA1385C4018545EFE0BFFDF0
:101ED00083A701814C10138504033ED48567938743
:101EE00007803ED893070002BEC252D24EDCCAC45D
:101EF00002D602DA02DE82C082C6EFE0DFF6138588
:101F000004038545EFE03FFA83A781804C08130561
:101F100004803ECAB7070C003ECE02CC231001025B
:101F2000EFF0EFEA1305048005469305000CEFF08F
:101F30000FFC854513050480EFF06FF961616FE0D8
:101F4000CFB0EFE2EFAE83475500411123120100FD
:101F50000547638CE708A5E3231401008347450088
:101F600005476389E706BDEB23130100834615008F
:101F7000034605000347250083473500A206D18E9E
:101F80004207558FE207D98F3EC0B1472315F100B4
:101F900023160100196473100480375500408A85A8
:101FA00013050580EFF0AFE213048408731004807A
:101FB00041016FE02FAA0947E390E7FA9307004039
:101FC0002314F10085672312F1008347450005477C
:101FD000E39BE7F88D672313F10049BF0947E395B9
:101FE000E7F889672313F10051B7930700602314C2
:101FF000F10085672312F10095B7EFE2CFA1B73763
:1020000002409387074083C7670E09478D8B63841F
:10201000E706372400201304446D8357C4C0C20769
:10202000C18399E36FE06FA2B70402401385C40136
:10203000EFE01FE965F90356C4C03715002093850A
:1020400001EA1305454DFD211385C4018145EFE0EB
:102050009FE58355C4C01385C401EFE03FE61385B7
:10206000C4018545EFE03FE41145231604C0EFE0CD
:10207000EFB06FE08F9D3705024013050503EFE0D9
:102080003FE4138A8184856503270A00138605804F
:10209000B304A640B386E4401305D01FB68763732C
:1020A000D50863F5E400B306E640B28413894184A1
:1020B0001306E01FB387E4406376D6009304E71F5E
:1020C000B387E44093860181904237240020C20701
:1020D0001304446D9305E7FFC1832315F4A0B307F0
:1020E000B60009462380C7008357A4A09042130579
:1020F0003008C207C183B337F000329793870706D1
:10210000A30FF7FE0356A4A09C4293F4F47F0906A4
:10211000BE95EFE0CFA903A7818323209A00232057
:10212000E900E5BD1389418403A581838326090065
:102130006308D500E3F8E4F8B306E640B2848DBF47
:10214000371400201304446D2E948357A4A0130762
:10215000E01FE314F7EC83A5018101461305300865
:10216000231504A0EFE0AFA44DBDEFE2EF89635467
:10217000B034896A0D6CB72C00002A8B2E8A01447A
:102180001389C185938A8A7B130C8C83938B01827C
:10219000938C2C9B832709001D47636CF7188A07D3
:1021A000D6979C438287B3078B0083C6070003A79B
:1021B0004185938701852380D700A380070093077B
:1021C000E00805046308F71C9D472320F900E3435A
:1021D00044FD22856FE0CF8683D9018503A7418521
:1021E000850923AC31859307E0086303F7008E0966
:1021F0008144138D41810145EFF0EFDB03270D0092
:1022000081476359E0000100010003270D008507A5
:10221000E3CBE7FE0545EFF00FDA03270D0081471A
:102220006359E0000100010003270D008507E3CB9F
:10223000E7FE8504E39199FC0145EFF0CFD7232019
:102240000900E34944F571B7B3078B0083C9070060
:1022500083A4818513F50908EFF02FD783A7C184E4
:1022600003A641818504A6854E85829783A7418573
:10227000050493F70702E1D7EFF0BF9E2320090082
:10228000C9B7B3078B0083C6070003A7418523ACFA
:10229000D18493772700050463820714137707041A
:1022A00069C391472320F900E34644EF1DB7B30704
:1022B0008B0083C70700938941851397870123A06B
:1022C000F900618705046352070E13C70708DD464E
:1022D00063EBE60E89660A079386867D3697184378
:1022E00002879389418503A7090093772700CDEBE7
:1022F000A14593848185418B1305F00F11C7B30766
:102300008B0003C50700050483A7C18403A6418190
:10231000829783A7090013F7070263110712898BBD
:102320009840639F070C630D070C832709007D17F6
:1023300098C02147E39DE7E82320090022856FD05C
:102340003FF033078B0093848185834707009440D7
:1023500003A74185A207D58F9CC093770704050486
:10236000A9F38D472320F900E34644E39DB5B30765
:102370008B0003C6070003A7418593870185A380CF
:10238000C7009306600805046303D7089306F008A6
:10239000631CD70495472320F900E34D44DF15BDA6
:1023A000938481858C408505B9B71387C18493F6E2
:1023B000070423200700A58BD9C6A1466381D70E49
:1023C000A5466384D70E1305A00FEFF09F8903A5E0
:1023D0000900EFF01F8983270900A1BF8947232047
:1023E000F900E34944DBF5B383C50700058713759E
:1023F0001700EFF0CFBE23200900E34D44D9D1BB35
:102400007D172320090098C0E34644D9D9B303A718
:10241000818183C6070093178600098BD58F29C356
:102420001547138D41816353F7009547DE9783C7A6
:102430000700232009002320FD0021B5EFF07F8253
:1024400083A70900E9BDA9C385466389D70CA146C6
:10245000638CD70CA546E398D7F62320970115A8DF
:102460003D47138D41816353F700BD47E29783C712
:102470000700232009002320FD00E1B39947232012
:10248000F900E34944D1B1B3B72700009387E7B619
:102490001CC385472320F900E34E44CF1DBBB7275B
:1024A00000009387A7911CC3EDB7B727000093875F
:1024B00027881CC3F9BF014429BB858713F5170082
:1024C000EFF0AFB6EFF0EFF9832709009DB59387E2
:1024D000818198431367170098C3E34D44CBD5B966
:1024E000938781819843799B98C3E34544CBD5B1C9
:1024F000938781819843759B98C3E34D44C9D1B9B3
:10250000EFF0EFFA832709002DB593878181984377
:102510001367270098C3E34F44C765B9B727000086
:10252000938727AE1CC3B5B7B72700009387A7A42E
:102530001CC385B7B3C7A5008D8B3307C50081E7E2
:102540008D4763EEC700AA876370E50A83C605005E
:1025500085078505A38FD7FEE3EAE7FE82809376A1
:102560003500AA8791CA83C6050085078505A38F14
:10257000D7FE93F63700FDB79376C7FF138606FEA6
:1025800063F0C70683A3050083A2450083AF8500DF
:1025900003AFC50083AE050103AE450103A385016A
:1025A00083A8C5019385450223A0770003A8C5FF32
:1025B00023A2570023A4F70123A6E70123A8D701EC
:1025C00023AAC70123AC670023AE170193874702F4
:1025D00023AE07FF75B790419107910523AEC7FE63
:1025E000E3EBD7FEE3E4E7F6828000001807000083
:1025F000DA0600009404000086060000940400003F
:10260000CC0600003C070000940400007A0700009C
:10261000580700006C070000460500007E08000017
:102620006608000028080000100800007E0800006E
:102630007E080000F80700008C07000096080000E4
:102640000E090000F6080000DC080000C4080000C5
:10265000AC0800000902370002010080FA090400FA
:102660000002FFFFFF04070581024000000705028A
:10267000024000000904010002FFFFFF0507058377
:102680000240000007050402400000000902370074
:1026900002010080FA0904000002FFFFFF040705A1
:1026A0008102000200070502020002000904010085
:1026B00002FFFFFF05070583020002000705040271
:1026C000000200001201000200000040030410603C
:1026D00000050102030100000A060002000000409C
:1026E000010000001A03460054003200320033009B
:1026F000320048002D004A0054004100470000000D
:102700001A03460054003200320033003200480001
:102710002D005500410052005400000010034600F7
:102720005400320032003300320048000A034600F1
:102730005400440049000000000803041060000534
:102740008032000000029610A61A00004600100316
:102750004F00700065006E002D00450043001A0315
:1027600055005300420020004400650062007500DF
:1027700067006700650072000000000000000000B4
:102780000000000000000000000000000000000049
:102790000000000000000000000000000000000039
:1027A0000000000000000000000000000000000029
:1027B0000000000000002710AE220000822200006E
:1027C00042230000E222000048220000D82100003D
:1027D000A62100006E2300007C240000BA24000023
:1027E0007C240000BA240000CE240000E024000075
:1027F0007C24000000250000CE210000CE21000036
:10280000F02400000A250000CE210000CE210000A7
:102810007C2400007C240000C6230000C6230000A6
:10282000C6230000C6230000C6230000C623000004
:10283000CE210000CE2100000101010101020304AC
:08284000040506070808080959
:102848001A033000310032003300340035003600FE
:102858003700380039004100420000000000000045
:10286800010203040102030406070809000000002E
:10287800004495080204060800C201000000080090
:10288800D40C002001000000020000000403090429
:082898000105080C10140000FA
:00000001FF
